:100000000C943E000C945B000C945B000C945B0021
:100010000C945B000C945B000C945B000C945B00F4
:100020000C945B000C945B000C945B000C945B00E4
:100030000C945B000C945B000C945B000C945B00D4
:100040000C945B000C945B000C945B000C945B00C4
:100050000C945B000C945B000C945B000C945B00B4
:100060000C945B000C945B00750078007B007E00B4
:100070008100840087008A008D008F0011241FBE3C
:10008000CFEFD8E0DEBFCDBF11E0A0E0B1E0E0E30C
:10009000F6E002C005900D92AA30B107D9F721E031
:1000A000AAE0B1E001C01D92A931B207E1F70E94B8
:1000B000E0010C9416030C9400008AB18F678AB992
:1000C0008AB18F778AB984B1877C84B987B18F6010
:1000D00087B987B1806387B908958A30910508F59B
:1000E000FC01EC5CFF4F0C94ED0280E48BB90895A9
:1000F00089E78BB9089584E28BB9089580E38BB9C1
:10010000089589E18BB9089582E18BB9089582E061
:100110008BB9089588E78BB908951BB8089580E1DD
:100120008BB90895CF93DF938091120190911301C1
:100130002AE030E0B9010E94D902EAE0F1E09183BF
:1001400080838091120190911301B9010E94D9021C
:10015000738362838091140190911501B9010E940B
:10016000D902958384838091140190911501B9017E
:100170000E94D90277836683C0E0D0E01EC088B1B8
:10018000807F88B928B181E090E00C2E02C0880FF2
:10019000991F0A94E2F7822B88B9FE01EE0FFF1F28
:1001A000E65FFE4F808191810E946D008FE99FE0A4
:1001B0000197F1F700C000002196C430D105FCF290
:1001C000DF91CF91089594B1976094B920E030E029
:1001D00021C0482F50E0022E02C0559547950A9441
:1001E000E2F740FF04C095B1926095B903C095B1A4
:1001F0009D7F95B995B1916095B995E39A95F1F781
:10020000000095B19E7F95B995E39A95F1F70000AE
:100210002F5F3F4F28303105E4F20895CF93C62F6A
:1002200095B1946095B90E94E30084B1876084B968
:1002300080E090E020C02C2F30E0082E02C03595E1
:1002400027950A94E2F720FF04C025B1226025B962
:1002500003C025B12D7F25B925B1216025B925E33E
:100260002A95F1F7000025B12E7F25B925E32A95BF
:10027000F1F70000019688309105ECF285B18B7F93
:1002800085B9CF91089595B1946095B90E94E30026
:1002900084B18D7F84B920E030E080E01BC0199BE1
:1002A00009C041E050E0022E02C0440F551F0A94DD
:1002B000E2F7842B95B1916095B995E39A95F1F7A2
:1002C000000095B19E7F95B995E39A95F1F70000EE
:1002D0002F5F3F4F2830310514F394B1926094B9E9
:1002E00095B19B7F95B90895CF93DF93FC019C0155
:1002F000ADECBCEC0E94F302AC01569547955695C7
:10030000479556954795EA01C295D295D07FDC274F
:10031000C07FDC27CA01880F991F440F551F440F67
:10032000551F440F551F480F591FCF01841B950BB4
:100330008C0F9D1FDF91CF910895982F92959F70FC
:10034000990F292F220F220F920F8F70890F90E0A3
:10035000089580911601909117010E947401682FF1
:10036000809108010E940E01809112019091130169
:100370000E947401682F809106010E940E018091F5
:100380001401909115010E947401682F809102015F
:100390000E940E010895809104010E9443010E9471
:1003A0009D019093130180931201809100010E949E
:1003B00043010E949D0190931501809314010895BB
:1003C000109218010E945D00809118018130E1F0C7
:1003D00038F0823009F476C0833009F4D1C0F4CF0C
:1003E00088B18F7E88B988B18F7D88B91B990CC080
:1003F0002FEF82E597E0215080409040E1F700C068
:10040000000081E08093180188B1806188B988B1CB
:100410008F7D88B90E94CB014F990CC02FEF82E5E8
:1004200097E0215080409040E1F700C0000083E059
:10043000809318011B990CC02FEF82E597E02150A3
:1004400080409040E1F700C0000082E080931801F6
:100450001C9918C08091140190911501479794F44C
:10046000809114019091150101969093150180934C
:1004700014012FEF82E597E0215080409040E1F792
:1004800000C000001D9919C08091140190911501C0
:100490001816190694F48091140190911501019792
:1004A00090931501809314012FEF82E597E021507E
:1004B00080409040E1F700C000000E94A9010E9426
:1004C000920082CF88B1806188B988B18F7D88B968
:1004D0000E94CB014F990CC02FEF82E597E021508D
:1004E00080409040E1F700C0000083E08093180155
:1004F0001B990CC02FEF82E597E02150804090407F
:10050000E1F700C0000081E0809318011C9918C039
:100510008091120190911301CB9794F48091120174
:1005200090911301019690931301809312012FEF84
:1005300082E597E0215080409040E1F700C0000044
:100540001D9919C080911201909113011816190676
:1005500094F48091120190911301019790931301EB
:10056000809312012FEF82E597E021508040904068
:10057000E1F700C000000E94A9010E94920024CF70
:1005800088B18F7E88B988B1806288B91B990CC008
:100590002FEF82E597E0215080409040E1F700C0C6
:1005A000000081E0809318010E94CB010E9492001C
:1005B0000BCF97FB072E16F4009407D077FD09D0D8
:1005C0000E94020307FC05D03EF4909581959F4F51
:1005D0000895709561957F4F0895EE0FFF1F059068
:1005E000F491E02D0994A29FB001B39FC001A39F95
:1005F000700D811D1124911DB29F700D811D11245C
:10060000911D0895AA1BBB1B51E107C0AA1FBB1F68
:10061000A617B70710F0A61BB70B881F991F5A958E
:10062000A9F780959095BC01CD010895F894FFCF6E
:0A0630008500840083008200800032
:00000001FF
